:020000002100DD
:10010000758921120116AD2012011F12013412024D
:100110003212027980F2758DFD759850D28E22E4EC
:10012000F530F531F532F533F534F535C3920A92F1
:100130000B920C2231955106200B37200C3451CEF6
:100140001D540FF53031955106200A26200C2351FD
:10015000CE1DF53231955106200B17200C1451CECF
:100160001D540FF53131955106200A0651CE1D80E0
:10017000232251BF744551CE1D745251CE1D74526D
:1001800051CE1D744F51CE1D745251CE1D7421514C
:10019000CE1D21082275900F75A000E590540FB474
:1001A0000FF61202D6E590540FB40F0280F412023B
:1001B000D6E590540FB40F0280E875A0FEE5905488
:1001C0000FB40F2175A0FDE590540FB40F1C75A05E
:1001D000FBE590540FB40F1775A0F7E590540FB4DA
:1001E0000F120201A2900300800D9003048008907A
:1001F0000308800390030C135003A380FAE4936078
:10020000012251BF2100B42B02412BB42D02412BFE
:10021000B42A02412BB42F02412BB43D07C20AC2BB
:100220000BD20C22D20AC20BC20C22C20AD20BC2BF
:0C0230000C22E5308531F0AF32BF2B0806
:10023C0025F0F53375342B22BF2D1295F04006F5C1
:10024C003375342B22F404F53375342D22BF2A0771
:10025C00A4F53375342B22BF2F1285F03584F5337A
:10026C00740AA48535F084F53575342B22AF35BF6F
:10027C00002BAE34BE2B1FE53375F00A84600E24C0
:10028C003051CE1DE5F0243051CE1D8025E5F024F3
:10029C003051CE1D801C742D51CE1D80DAE53324D7
:1002AC003051CE1D742E51CE1DE535243051CE1D4E
:1002BC00800022742051CEDDFCAD2051CEDDFCAD92
:1002CC002022F5993099FDC29922758AE0758CB17E
:1002DC00D28C308DFDC28CC28D22758A60758C7962
:0A02EC00D28C308DFDC28CC28D2231
:100300003738392F3435362A3132332D00303D2BF2
:00000001FF
